{
  "_format": "hh-sol-artifact-1",
  "contractName": "WECTStaking",
  "sourceName": "contracts/WECTStaking.sol",
  "abi": [
    {
      "inputs": [
        {
          "internalType": "address",
          "name": "_stakingToken",
          "type": "address"
        },
        {
          "internalType": "address",
          "name": "_rewardToken",
          "type": "address"
        }
      ],
      "stateMutability": "nonpayable",
      "type": "constructor"
    },
    {
      "inputs": [
        {
          "internalType": "address",
          "name": "owner",
          "type": "address"
        }
      ],
      "name": "OwnableInvalidOwner",
      "type": "error"
    },
    {
      "inputs": [
        {
          "internalType": "address",
          "name": "account",
          "type": "address"
        }
      ],
      "name": "OwnableUnauthorizedAccount",
      "type": "error"
    },
    {
      "anonymous": false,
      "inputs": [
        {
          "indexed": true,
          "internalType": "address",
          "name": "previousOwner",
          "type": "address"
        },
        {
          "indexed": true,
          "internalType": "address",
          "name": "newOwner",
          "type": "address"
        }
      ],
      "name": "OwnershipTransferred",
      "type": "event"
    },
    {
      "inputs": [],
      "name": "claimReward",
      "outputs": [],
      "stateMutability": "nonpayable",
      "type": "function"
    },
    {
      "inputs": [
        {
          "internalType": "address",
          "name": "account",
          "type": "address"
        }
      ],
      "name": "earned",
      "outputs": [
        {
          "internalType": "uint256",
          "name": "",
          "type": "uint256"
        }
      ],
      "stateMutability": "view",
      "type": "function"
    },
    {
      "inputs": [],
      "name": "lastUpdateTime",
      "outputs": [
        {
          "internalType": "uint256",
          "name": "",
          "type": "uint256"
        }
      ],
      "stateMutability": "view",
      "type": "function"
    },
    {
      "inputs": [],
      "name": "owner",
      "outputs": [
        {
          "internalType": "address",
          "name": "",
          "type": "address"
        }
      ],
      "stateMutability": "view",
      "type": "function"
    },
    {
      "inputs": [],
      "name": "renounceOwnership",
      "outputs": [],
      "stateMutability": "nonpayable",
      "type": "function"
    },
    {
      "inputs": [],
      "name": "rewardPerToken",
      "outputs": [
        {
          "internalType": "uint256",
          "name": "",
          "type": "uint256"
        }
      ],
      "stateMutability": "view",
      "type": "function"
    },
    {
      "inputs": [],
      "name": "rewardPerTokenStored",
      "outputs": [
        {
          "internalType": "uint256",
          "name": "",
          "type": "uint256"
        }
      ],
      "stateMutability": "view",
      "type": "function"
    },
    {
      "inputs": [],
      "name": "rewardRate",
      "outputs": [
        {
          "internalType": "uint256",
          "name": "",
          "type": "uint256"
        }
      ],
      "stateMutability": "view",
      "type": "function"
    },
    {
      "inputs": [],
      "name": "rewardToken",
      "outputs": [
        {
          "internalType": "contract IERC20",
          "name": "",
          "type": "address"
        }
      ],
      "stateMutability": "view",
      "type": "function"
    },
    {
      "inputs": [
        {
          "internalType": "address",
          "name": "",
          "type": "address"
        }
      ],
      "name": "rewards",
      "outputs": [
        {
          "internalType": "uint256",
          "name": "",
          "type": "uint256"
        }
      ],
      "stateMutability": "view",
      "type": "function"
    },
    {
      "inputs": [
        {
          "internalType": "uint256",
          "name": "_amount",
          "type": "uint256"
        }
      ],
      "name": "stake",
      "outputs": [],
      "stateMutability": "nonpayable",
      "type": "function"
    },
    {
      "inputs": [],
      "name": "stakingToken",
      "outputs": [
        {
          "internalType": "contract IERC20",
          "name": "",
          "type": "address"
        }
      ],
      "stateMutability": "view",
      "type": "function"
    },
    {
      "inputs": [
        {
          "internalType": "address",
          "name": "newOwner",
          "type": "address"
        }
      ],
      "name": "transferOwnership",
      "outputs": [],
      "stateMutability": "nonpayable",
      "type": "function"
    },
    {
      "inputs": [
        {
          "internalType": "address",
          "name": "",
          "type": "address"
        }
      ],
      "name": "userRewardPerTokenPaid",
      "outputs": [
        {
          "internalType": "uint256",
          "name": "",
          "type": "uint256"
        }
      ],
      "stateMutability": "view",
      "type": "function"
    },
    {
      "inputs": [
        {
          "internalType": "uint256",
          "name": "_amount",
          "type": "uint256"
        }
      ],
      "name": "withdraw",
      "outputs": [],
      "stateMutability": "nonpayable",
      "type": "function"
    }
  ],
  "bytecode": "0x6080604052606460035534801561001557600080fd5b506040516114ca3803806114ca8339818101604052810190610037919061026a565b33600073ffffffffffffffffffffffffffffffffffffffff168173ffffffffffffffffffffffffffffffffffffffff16036100aa5760006040517f1e4fbdf70000000000000000000000000000000000000000000000000000000081526004016100a191906102b9565b60405180910390fd5b6100b98161014360201b60201c565b5081600160006101000a81548173ffffffffffffffffffffffffffffffffffffffff021916908373ffffffffffffffffffffffffffffffffffffffff16021790555080600260006101000a81548173ffffffffffffffffffffffffffffffffffffffff021916908373ffffffffffffffffffffffffffffffffffffffff16021790555050506102d4565b60008060009054906101000a900473ffffffffffffffffffffffffffffffffffffffff169050816000806101000a81548173ffffffffffffffffffffffffffffffffffffffff021916908373ffffffffffffffffffffffffffffffffffffffff1602179055508173ffffffffffffffffffffffffffffffffffffffff168173ffffffffffffffffffffffffffffffffffffffff167f8be0079c531659141344cd1fd0a4f28419497f9722a3daafe3b4186f6b6457e060405160405180910390a35050565b600080fd5b600073ffffffffffffffffffffffffffffffffffffffff82169050919050565b60006102378261020c565b9050919050565b6102478161022c565b811461025257600080fd5b50565b6000815190506102648161023e565b92915050565b6000806040838503121561028157610280610207565b5b600061028f85828601610255565b92505060206102a085828601610255565b9150509250929050565b6102b38161022c565b82525050565b60006020820190506102ce60008301846102aa565b92915050565b6111e7806102e36000396000f3fe608060405234801561001057600080fd5b50600436106100f45760003560e01c80638da5cb5b11610097578063cd3daf9d11610066578063cd3daf9d1461024d578063df136d651461026b578063f2fde38b14610289578063f7c618c1146102a5576100f4565b80638da5cb5b146101eb578063a694fc3a14610209578063b88a802f14610225578063c8f33c911461022f576100f4565b8063715018a6116100d3578063715018a61461017557806372f702f31461017f5780637b0a47ee1461019d5780638b876347146101bb576100f4565b80628cc262146100f95780630700037d146101295780632e1a7d4d14610159575b600080fd5b610113600480360381019061010e9190610c94565b6102c3565b6040516101209190610cda565b60405180910390f35b610143600480360381019061013e9190610c94565b6103c5565b6040516101509190610cda565b60405180910390f35b610173600480360381019061016e9190610d21565b6103dd565b005b61017d6105be565b005b6101876105d2565b6040516101949190610dad565b60405180910390f35b6101a56105f8565b6040516101b29190610cda565b60405180910390f35b6101d560048036038101906101d09190610c94565b6105fe565b6040516101e29190610cda565b60405180910390f35b6101f3610616565b6040516102009190610dd7565b60405180910390f35b610223600480360381019061021e9190610d21565b61063f565b005b61022d6107a0565b005b610237610919565b6040516102449190610cda565b60405180910390f35b61025561091f565b6040516102629190610cda565b60405180910390f35b610273610982565b6040516102809190610cda565b60405180910390f35b6102a3600480360381019061029e9190610c94565b610988565b005b6102ad610a0e565b6040516102ba9190610dad565b60405180910390f35b6000600760008373ffffffffffffffffffffffffffffffffffffffff1673ffffffffffffffffffffffffffffffffffffffff16815260200190815260200160002054670de0b6b3a7640000600660008573ffffffffffffffffffffffffffffffffffffffff1673ffffffffffffffffffffffffffffffffffffffff1681526020019081526020016000205461035661091f565b6103609190610e21565b600960008673ffffffffffffffffffffffffffffffffffffffff1673ffffffffffffffffffffffffffffffffffffffff168152602001908152602001600020546103aa9190610e55565b6103b49190610ec6565b6103be9190610ef7565b9050919050565b60076020528060005260406000206000915090505481565b60008111610420576040517f08c379a000000000000000000000000000000000000000000000000000000000815260040161041790610f88565b60405180910390fd5b80600960003373ffffffffffffffffffffffffffffffffffffffff1673ffffffffffffffffffffffffffffffffffffffff1681526020019081526020016000205410156104a2576040517f08c379a000000000000000000000000000000000000000000000000000000000815260040161049990610ff4565b60405180910390fd5b6104ab33610a34565b80600860008282546104bd9190610e21565b9250508190555080600960003373ffffffffffffffffffffffffffffffffffffffff1673ffffffffffffffffffffffffffffffffffffffff16815260200190815260200160002060008282546105139190610e21565b92505081905550600160009054906101000a900473ffffffffffffffffffffffffffffffffffffffff1673ffffffffffffffffffffffffffffffffffffffff1663a9059cbb33836040518363ffffffff1660e01b8152600401610577929190611014565b6020604051808303816000875af1158015610596573d6000803e3d6000fd5b505050506040513d601f19601f820116820180604052508101906105ba9190611075565b5050565b6105c6610ade565b6105d06000610b65565b565b600160009054906101000a900473ffffffffffffffffffffffffffffffffffffffff1681565b60035481565b60066020528060005260406000206000915090505481565b60008060009054906101000a900473ffffffffffffffffffffffffffffffffffffffff16905090565b60008111610682576040517f08c379a0000000000000000000000000000000000000000000000000000000008152600401610679906110ee565b60405180910390fd5b61068b33610a34565b806008600082825461069d9190610ef7565b9250508190555080600960003373ffffffffffffffffffffffffffffffffffffffff1673ffffffffffffffffffffffffffffffffffffffff16815260200190815260200160002060008282546106f39190610ef7565b92505081905550600160009054906101000a900473ffffffffffffffffffffffffffffffffffffffff1673ffffffffffffffffffffffffffffffffffffffff166323b872dd3330846040518463ffffffff1660e01b81526004016107599392919061110e565b6020604051808303816000875af1158015610778573d6000803e3d6000fd5b505050506040513d601f19601f8201168201806040525081019061079c9190611075565b5050565b6107a933610a34565b6000600760003373ffffffffffffffffffffffffffffffffffffffff1673ffffffffffffffffffffffffffffffffffffffff16815260200190815260200160002054905060008111610830576040517f08c379a000000000000000000000000000000000000000000000000000000000815260040161082790611191565b60405180910390fd5b6000600760003373ffffffffffffffffffffffffffffffffffffffff1673ffffffffffffffffffffffffffffffffffffffff16815260200190815260200160002081905550600260009054906101000a900473ffffffffffffffffffffffffffffffffffffffff1673ffffffffffffffffffffffffffffffffffffffff1663a9059cbb33836040518363ffffffff1660e01b81526004016108d2929190611014565b6020604051808303816000875af11580156108f1573d6000803e3d6000fd5b505050506040513d601f19601f820116820180604052508101906109159190611075565b5050565b60045481565b6000806008540361093457600554905061097f565b600854670de0b6b3a7640000600354600454426109519190610e21565b61095b9190610e55565b6109659190610e55565b61096f9190610ec6565b60055461097c9190610ef7565b90505b90565b60055481565b610990610ade565b600073ffffffffffffffffffffffffffffffffffffffff168173ffffffffffffffffffffffffffffffffffffffff1603610a025760006040517f1e4fbdf70000000000000000000000000000000000000000000000000000000081526004016109f99190610dd7565b60405180910390fd5b610a0b81610b65565b50565b600260009054906101000a900473ffffffffffffffffffffffffffffffffffffffff1681565b610a3c61091f565b60058190555042600481905550610a52816102c3565b600760008373ffffffffffffffffffffffffffffffffffffffff1673ffffffffffffffffffffffffffffffffffffffff16815260200190815260200160002081905550600554600660008373ffffffffffffffffffffffffffffffffffffffff1673ffffffffffffffffffffffffffffffffffffffff1681526020019081526020016000208190555050565b610ae6610c29565b73ffffffffffffffffffffffffffffffffffffffff16610b04610616565b73ffffffffffffffffffffffffffffffffffffffff1614610b6357610b27610c29565b6040517f118cdaa7000000000000000000000000000000000000000000000000000000008152600401610b5a9190610dd7565b60405180910390fd5b565b60008060009054906101000a900473ffffffffffffffffffffffffffffffffffffffff169050816000806101000a81548173ffffffffffffffffffffffffffffffffffffffff021916908373ffffffffffffffffffffffffffffffffffffffff1602179055508173ffffffffffffffffffffffffffffffffffffffff168173ffffffffffffffffffffffffffffffffffffffff167f8be0079c531659141344cd1fd0a4f28419497f9722a3daafe3b4186f6b6457e060405160405180910390a35050565b600033905090565b600080fd5b600073ffffffffffffffffffffffffffffffffffffffff82169050919050565b6000610c6182610c36565b9050919050565b610c7181610c56565b8114610c7c57600080fd5b50565b600081359050610c8e81610c68565b92915050565b600060208284031215610caa57610ca9610c31565b5b6000610cb884828501610c7f565b91505092915050565b6000819050919050565b610cd481610cc1565b82525050565b6000602082019050610cef6000830184610ccb565b92915050565b610cfe81610cc1565b8114610d0957600080fd5b50565b600081359050610d1b81610cf5565b92915050565b600060208284031215610d3757610d36610c31565b5b6000610d4584828501610d0c565b91505092915050565b6000819050919050565b6000610d73610d6e610d6984610c36565b610d4e565b610c36565b9050919050565b6000610d8582610d58565b9050919050565b6000610d9782610d7a565b9050919050565b610da781610d8c565b82525050565b6000602082019050610dc26000830184610d9e565b92915050565b610dd181610c56565b82525050565b6000602082019050610dec6000830184610dc8565b92915050565b7f4e487b7100000000000000000000000000000000000000000000000000000000600052601160045260246000fd5b6000610e2c82610cc1565b9150610e3783610cc1565b9250828203905081811115610e4f57610e4e610df2565b5b92915050565b6000610e6082610cc1565b9150610e6b83610cc1565b9250828202610e7981610cc1565b91508282048414831517610e9057610e8f610df2565b5b5092915050565b7f4e487b7100000000000000000000000000000000000000000000000000000000600052601260045260246000fd5b6000610ed182610cc1565b9150610edc83610cc1565b925082610eec57610eeb610e97565b5b828204905092915050565b6000610f0282610cc1565b9150610f0d83610cc1565b9250828201905080821115610f2557610f24610df2565b5b92915050565b600082825260208201905092915050565b7f4b616e206765656e2030206f706e656d656e0000000000000000000000000000600082015250565b6000610f72601283610f2b565b9150610f7d82610f3c565b602082019050919050565b60006020820190508181036000830152610fa181610f65565b9050919050565b7f4f6e766f6c646f656e64652073616c646f000000000000000000000000000000600082015250565b6000610fde601183610f2b565b9150610fe982610fa8565b602082019050919050565b6000602082019050818103600083015261100d81610fd1565b9050919050565b60006040820190506110296000830185610dc8565b6110366020830184610ccb565b9392505050565b60008115159050919050565b6110528161103d565b811461105d57600080fd5b50565b60008151905061106f81611049565b92915050565b60006020828403121561108b5761108a610c31565b5b600061109984828501611060565b91505092915050565b7f4b616e206765656e2030207374616b656e000000000000000000000000000000600082015250565b60006110d8601183610f2b565b91506110e3826110a2565b602082019050919050565b60006020820190508181036000830152611107816110cb565b9050919050565b60006060820190506111236000830186610dc8565b6111306020830185610dc8565b61113d6040830184610ccb565b949350505050565b7f4765656e2062656c6f6e696e67656e206265736368696b626161720000000000600082015250565b600061117b601b83610f2b565b915061118682611145565b602082019050919050565b600060208201905081810360008301526111aa8161116e565b905091905056fea2646970667358221220bd6b57be7933062bc74ef2683fb85e38759608cb95899197751eb620b76eba6464736f6c634300081c0033",
  "linkReferences": {},
  "deployedLinkReferences": {}
}